:020000040800F2
:10000000D81400209901000803290008BF1E000829
:10001000012900080B05000821310008000000003C
:1000200000000000000000000000000001010008C6
:100030000D0500080000000045010008852C00089F
:10004000B3010008B3010008B3010008B3010008C0
:10005000B3010008B3010008B3010008B3010008B0
:10006000B3010008B3010008B3010008B3010008A0
:10007000B3010008B3010008B3010008B301000890
:10008000B3010008B3010008B3010008B301000880
:10009000B3010008B3010008B3010008B301000870
:1000A000B3010008112D0008B3010008B3010008D6
:1000B000B30100081D2D0008B3010008B3010008BA
:1000C000B3010008B3010008B3010008B301000840
:1000D000B3010008B3010008B3010008B301000830
:1000E000B3010008B3010008B3010008DFF80CD029
:1000F00000F0EAF900480047A5360008D8140020AF
:10010000224B19680868B0E8F00F80F30988BFF344
:100110006F8F4FF0000080F311884EF00D0E704786
:100120000000000006480068006880F3088862B696
:1001300061B6BFF34F8FBFF36F8F00DF00BF00BF0B
:1001400008ED00E0EFF30980BFF36F8F0F4B1A68E3
:1001500020E9F00F106008B54FF0500080F31188CF
:10016000BFF34F8FBFF36F8F03F0DEFE4FF0000041
:1001700080F31188BDE8084019680868B0E8F00FFE
:1001800080F30988BFF36F8F704700BF58000020CD
:10019000EFF3058070470000064880470648004797
:1001A000FEE7FEE7FEE7FEE7FEE7FEE7FEE7FEE727
:1001B000FEE7FEE70F2D0008ED000008202A04DB13
:1001C000203A21FA02F00021704721FA02F3D040D0
:1001D000C2F12002914008431946704740EA0103EA
:1001E0009B0703D009E008C9121F08C0042AFAD2ED
:1001F00003E011F8013B00F8013B521EF9D27047B1
:10020000D2B201E000F8012B491EFBD27047002258
:10021000F6E710B513460A4604461946FFF7F0FF05
:10022000204610BD2DE9FE4F81EA030404F000448E
:1002300021F0004100944FF0000B23F0004350EAFE
:1002400001045ED052EA03045BD0C3F30A54C1F345
:100250000A552C44A4F2F3340194A0FB0254C1F3D8
:10026000130141F48011C3F3130343F4801301FB22
:10027000024400FB034E840A970A44EA815447EA89
:100280008357A4FB076802958D0A05FB07854FEA93
:10029000932C04FB0C542705029D4FEA065847EAAD
:1002A0001637B5EB08056EEB070C870E920E47EA82
:1002B000811742EA8312A7FB0201B6EB0B0164EB44
:1002C00000042B0D43EA0C335E1844EB1C50DA4655
:1002D0005146E7FB0201C5F313044FEA0B3343EA2F
:1002E00014534FEA0432019C43EA0603A4F10C04C0
:1002F0000294009CCDE900B400F097F803B0BDE88B
:10030000F08F00200146F9E7C10F80EAE070084451
:10031000CA079623002100F04BB8C1F30A5210B56A
:10032000C1F3130140F2FF3341F480119A4201DA24
:10033000002010BD40F233439A42A2F2334203DC64
:100340005242FFF73BFF10BD904010BD00F000424D
:1003500030F000400AD0C10D01F56071C0F3160005
:1003600042EA0151C208400711437047002001468C
:10037000704730B50B46014600202022012409E0D9
:1003800021FA02F59D4205D303FA02F5491B04FA4E
:1003900002F52844151EA2F10102F1DC30BD00294E
:1003A000A8BF7047401C490008BF20F001007047FB
:1003B00010B4B0FA80FC00FA0CF050EA010404BF5B
:1003C00010BC704749B1CCF1200421FA04F411FAB1
:1003D0000CF118BF012121430843A3EB0C01CB1DF5
:1003E0004FEA00614FEA102042BF002010BC704766
:1003F00000EBC35010440029A4BF10BC7047401C40
:10040000490008BF20F0010010BC704710B5141E51
:1004100073F1000408DA401C41F1000192185B41BD
:100420001A4301D120F0010010BD2DE9F04D924694
:100430009B4611B1B1FA81F202E0B0FA80F22032AB
:10044000904600F053F804460F4640EA0A0041EA9D
:100450000B0153465A46084313D0114653EA010094
:1004600019D0C8F140025046FFF7A8FE05460E46D7
:1004700050465946424600F039F8084305D001205D
:1004800004E020463946BDE8F08D0020054346EAE9
:10049000E0762C4337430A986305E40AA0EB080092
:1004A0000022FD0A44EA47540A3002D500200146E2
:1004B000E9E7010510196941DDE9084500196941BD
:1004C000BDE8F04DA2E70000064C074D06E0E068ED
:1004D00040F0010394E8070098471034AC42F6D38B
:1004E000FFF708FE4C4D00086C4D0008202A04DB85
:1004F000203A00FA02F1002070479140C2F1200337
:1005000020FA03F3194390407047FEE7704772B634
:10051000FEE7000070B5044600F008F90546601CCF
:1005200002D004480078044400F000F9401BA042C7
:10053000FAD370BD480000202DE9F84FDFF8B891DC
:100540000024A9F1040B23460F2709F1040AABF19B
:10055000040EC9E00125A5402A40AA427DD1674E7C
:10056000D1F804C0ACEB0608B44532D014DCBCF1C1
:10057000030F3AD009DCBCF1000F2AD0BCF1010F07
:100580001CD0BCF1020F31D11DE0BCF1110F17D00E
:10059000BCF1120F2AD119E0B8F5881F19D006DC7A
:1005A000B8F5803F15D0B8F5801F1FD111E0B8F520
:1005B000001F0ED0B8F5041F18D10AE0CB6815E073
:1005C000CB681B1D12E0CB6808330FE0CB680C33FF
:1005D0000CE08B682BB1012B4FF0080303D0456171
:1005E00004E0042302E0056100E00023FF2A01D8B3
:1005F000064601E000F104064FEA840501D9A5F1A1
:100600002005D6F8008007FA05FC28EA0C0803FA52
:1006100005F548EA0508C6F800804D68ED0062D58A
:10062000374DAE6946F00106AE61AD6924F00306B0
:1006300005F001050095334D06EB050CDCF808507C
:10064000A607360F07FA06F825EA0805DFF8B8808E
:10065000404503D14FF0000817E044E0DFF8AC80DC
:10066000404502D14FF001080FE0DFF8A48040457B
:1006700002D14FF0020808E0DFF89880404502D12F
:100680004FF0030801E04FF0040808FA06F848EAC2
:100690000508CCF808804D68D9F80060ED024D4699
:1006A00001D5164300E096432E604D68DAF80060ED
:1006B000AD02554601D5164300E096432E604D68C5
:1006C000DBF80060AD035D4601D5164300E09643BC
:1006D0002E604D68DEF80060ED03754601D51643C7
:1006E00000E096432E60641C0D682A46E5407FF4C6
:1006F00031AFBDE8F88F0000080401400000111080
:10070000001002400000014000080140000C0140C0
:1007100000100140001401408068084000D0012012
:1007200070470AB1016170470904FBE7014880681E
:10073000704700004800002070B5040025D094F8F0
:100740003D00002520B984F83C50204600F00EFB07
:10075000242084F83D002068016821F00101016037
:100760002068016841F4004101602068016821F4BB
:100770000041016000F0B4FC4D4A6168914201D82B
:100780004C4900E04C49884201D2012070BD4B49E0
:100790002368B0FBF1F15E6826F03F060E435E6011
:1007A0006368934206D94FF4967359434FF47A73B2
:1007B000B1FBF3F12368491C1E6A26F03F06314362
:1007C00019626168914210D84900401EB0FBF1F2F5
:1007D000521CC2F30B02042A01D2042022E0B0FB17
:1007E000F1F0401CC0F30B001CE0A268F2B301EB77
:1007F000C10303EB0116431EB3FBF6F35B1C43F48A
:1008000080431B0549D092B301EBC10202EB0111F9
:10081000401EB0FBF1F0401CC0F30B0040F48040E0
:1008200040F400402168CA694CF6FF739A431043B4
:10083000C861D4E9071001432068026822F0C002B1
:1008400011430160D4E9030101432068826848F242
:10085000FF339A4311438160D4E9050108432168BD
:10086000CA6822F0FF021043C86001E00EE016E003
:100870002068016841F0010101602564202084F8AE
:100880003D00256384F83E50002070BD01EB410619
:10089000431EB3FBF6F35B1CB3E70120C2E701EB99
:1008A0004101401EB0FBF1F0401CC0F30B00B7E764
:1008B000A086010080841E0000093D0040420F0018
:1008C0002DE9F84F0025DDF82890984617468A460E
:1008D00004460095FFF72AFF064694F83D002028BD
:1008E0007AD11923012286492046009601F0BCFCEA
:1008F0000028F5D194F83C0001286DD0012084F83F
:100900003C0020680168C90703D1016841F001017A
:1009100001602068016821F400610160222084F8F0
:100920003D00102084F83E0025646762A4F82A8008
:10093000608D20857348E06233464A465146204622
:1009400001F0D6FA00287CD1208DDFF8BC81202769
:1009500068B1012814D00228206801681ED041F433
:10096000806101602068416980690090BBE0206877
:10097000416981690091016841F400710160B2E050
:100980002068016821F48061016072B620684169C5
:1009900081690091016841F400710AE041F400614D
:1009A000016072B62068416981690091016821F493
:1009B0008061016062B696E0032865D801280CD0FA
:1009C00002284B464FF000024146204600960BD0CD
:1009D00001F04AFCA8BB0CE090E0324649462046B4
:1009E00001F0E8FC68BB71E001F03EFC48BB72B668
:1009F00033E02068016821F48061016072B62068EC
:100A00000069616A0870606A401C6062208D401E47
:100A10002085608D401E60853C4846F2A811006824
:100A2000B0FBF1F0C0EBC00000EB80000090401E76
:100A3000009007D020684069C04340070DD500985A
:100A4000F5E727E044F8305F6773A573206940F04D
:100A50002000206162B625731CE02068016841F423
:100A60000071016020680069616A0870606A401C5A
:100A70006062218D491E2185618D491E618562B6A6
:100A800021680969017025E032464946204601F097
:100A900091FC10B10120BDE8F88F20680069616AFF
:100AA0000870606A401C6062208D401E81B2218502
:100AB000608D401E608520684269D243520712D47F
:100AC000032903D1016821F4806101602068006975
:100AD000616A0870606A401C6062208D401E20853B
:100AE000608D401E6085208D00287FF465AF84F8FE
:100AF0003D7084F83E5084F83C50CCE70220CAE7B1
:100B0000020010000000FFFF04000100540000205C
:100B10002DE9F84F1F4690468A460446DDF8289096
:100B2000FFF704FE054694F83D0020287FD11923E5
:100B3000012240492046009501F096FB002876D11D
:100B400094F83C00012872D0012084F83C00206811
:100B50000168C90703D1016841F001010160206803
:100B6000016821F400610160212084F83D0010201B
:100B700084F83E0000262664C4F824806785608DD2
:100B800020852D48E0622B464A465146204601F01A
:100B900025FA90B9206841698069009036E02A46BC
:100BA0004946204601F03EFC50B1206C042804D197
:100BB0002068016841F4007101600120BDE8F88FF0
:100BC000606A216800780861606A401C6062618D1B
:100BD000491E6185218D491E89B22185226853698C
:100BE000DB435B070BD451B100781061606A401C95
:100BF0006062608D401E6085208D401E20852A46E3
:100C00004946204601F004FB0028CED1208D002863
:100C1000C5D154F83D0B016841F4007101602020FA
:100C200004F81E09E67766770020C7E7FFE7022091
:100C3000C4E70000020010000000FFFF2DE9FF4F95
:100C400083B09A46DDE9119793460446DDF840806B
:100C5000FFF76CFD054694F83D0020287FD119234D
:100C6000012240492046009501F0FEFA002876D185
:100C700094F83C00012872D0012084F83C002068E0
:100C80000168C90703D1016841F0010101602068D2
:100C9000016821F400610160212084F83D004020BA
:100CA00084F83E0000262664C4F82480A4F82A9024
:100CB000608D20852C48E062CDE9007553465A4688
:100CC0002046049901F006FA70B930E02A46394608
:100CD000204601F0A7FB58B1206C042804D12068FD
:100CE000016841F400710160012007B0BDE8F08F98
:100CF000606A216800780861606A401C6062218D2A
:100D0000491E89B22185628D521E6285226853690F
:100D1000DB435B070BD469B100781061606A401C4B
:100D20006062208D401E2085608D401E6085208D74
:100D30000028CBD12A463946204601F069FA00281E
:100D4000CAD154F83D0B016841F4007101602020C4
:100D500004F81E09E67766770020C6E7FFE7022061
:100D6000C3E70000020010000000FFFF30B585B0AF
:100D7000002100910191029103911E4D03681E4CC8
:100D8000122103221D48AB4216D1A36943F0080388
:100D9000A361A369039203F008030493C023CDE980
:100DA00000316946FFF7C8FBE06940F40010E061DC
:100DB000E06900F4001019E0114DAB4217D1A369AE
:100DC00043F00803A361A369039203F008030493AB
:100DD0004FF44063CDE900316946FFF7ADFBE069B0
:100DE00040F48000E061E06900F48000049005B008
:100DF00030BD00000054004000100240000C0140D3
:100E000000580040024881680278114481607047B0
:100E100048000020074810B5016841F0100101604A
:100E2000032000F095F80F2000F006F800F03EF8DF
:100E3000002010BD0020024000B5014687B000220E
:100E4000192000F065F8192000F054F81348816962
:100E500041F400618161806905A900F40060069099
:100E6000684600F01DF900F04BF90D490D4AB0FB42
:100E7000F1F10D48491E0260416040F2E732002165
:100E8000C0E90321816000F037FB10B1012007B0F9
:100E900000BD054800F09EFBF9E70000001002408D
:100EA00040420F00002C0140A00300200F4808B56D
:100EB000816941F001018161816901F001010091C5
:100EC000C16941F08051C161C069002200F08050C9
:100ED00000900F21901E00F01BF80548416821F09A
:100EE000E06141F00071416008BD00000010024067
:100EF00000000140002809DB00F01F0201219140A1
:100F00004009800000F1E020C0F8001170470000A7
:100F1000F0B40E4B1B680C46C3F30223C3F1070564
:100F2000042D00D90425191D072901D2002300E052
:100F3000DB1E012606FA05F1491E214099409E401C
:100F4000761E16403143F0BC02F016B90CED00E0FD
:100F5000064900F0070208684FF6FF03184040EA10
:100F60000220034A10430860704700000CED00E0C7
:100F70000000FA052DE9F0470F46050061D0434E09
:100F8000306800F00700B84209D2306820F007004E
:100F900038433060306800F00700B84251D128680B
:100FA0003B4C810712D5400703D5606840F4E060F0
:100FB00060602878000703D5606840F46050606086
:100FC0006068A96820F0F000084360602878C007D6
:100FD00028D06868012810D02168022810D089071D
:100FE00000292EDA616821F0030101436160FFF7F7
:100FF0009DFB804641F288390DE021688903EFE7C7
:101000008901EDE7FFF792FBA0EB0801494502D902
:101010000320BDE8F0876068696800F00C00B0EB61
:10102000810FEFD1306800F00700B8420BD930686B
:1010300020F0070038433060306800F00700B84205
:1010400001D00120E5E72878400705D56068E96808
:1010500020F4E060084360602878000706D56068E7
:10106000296920F4605040EAC100606000F058F83F
:101070006168084AC1F30311515CC8400649086021
:1010800006480068FFF7D8FE0020C2E700200240B3
:1010900000100240EA4C0008540000204C000020E0
:1010A0000F2202600C4A536803F003034360536845
:1010B00003F0F0038360536803F4E063C360526895
:1010C0004FF4E06303EAD20202610448006800F0D2
:1010D0000700086070470000001002400020024036
:1010E0000448054900684968044AC1F30221515C7B
:1010F000C84070475400002000100240FA4C00081D
:101100000448054900684968044AC1F3C221515C9A
:10111000C84070475400002000100240FA4C0008FC
:101120000E4A51680E4801F00C03042B11D0082B15
:101130000FD10C48C1F38343C903C05C0AD5516881
:10114000084AC1F34041921E515C054A5043B0FB2E
:10115000F1F0704704494843704700000010024016
:1011600000127A00DA4C000800093D002DE9F84F22
:10117000040070D02078C04DC00749D06868C0F323
:101180008100012807D06868C0F38100022809D1D6
:101190006868C00306D52868800339D560680028D0
:1011A000E7D035E06068B0F5803F0BD010B1B0F506
:1011B000A02F11D0286820F480302860286820F4FF
:1011C000802002E0286840F480302860606890B198
:1011D000FFF7ACFA06460AE0286840F48020286051
:1011E000F0E700BFFFF7A2FA801B642873D82868D5
:1011F0008003F7D50CE0FFF799FA064605E000BF3B
:10120000FFF794FA801B6428F0D828688003F7D48D
:1012100020789A4E80074FF001094FF0000839D529
:10122000686810F00C0F07D06868C0F381000228CE
:1012300009D16868C00306D42868800714D52069DE
:10124000012808D110E02069B0B1C6F80090FFF77E
:101250006DFA074605E00AE1FFF768FAC01B0228AD
:10126000C4D828688007F7D52868616920F0F8009D
:1012700040EAC10028600DE0C6F80080FFF756FA8A
:10128000074604E0FFF752FAC01B022823D828685B
:101290008007F7D4207800072CD57948A169D9B107
:1012A000C0F80090FFF742FA074604E0FFF73EFA65
:1012B000C01B02280FD8686A8007F7D571484FF421
:1012C000FA510068B0FBF1F0009000BF0098411E99
:1012D0000091FAD20EE080E0C0F80080FFF726FA15
:1012E000074604E0FFF722FAC01B022875D8686A97
:1012F0008007F7D42078400760D5E8690027C00050
:1013000008D4E86940F08050E861E869012700F0FE
:10131000805000905C480168C90513D40168834679
:1013200041F480710160FFF701FA824606E000BFD8
:10133000FFF7FCF9A0EB0A0064284ED8DBF80000A8
:10134000C005F5D5E06801280AD008B1052813D0FA
:10135000286A20F001002862286A20F0040002E0D8
:10136000286A40F001002862E06841F2883B98B1A9
:10137000FFF7DCF982460BE0286A40F0040028629F
:10138000EEE700BFFFF7D2F9A0EB0A0159455AD8A2
:10139000286A8007F6D50CE0FFF7C8F9824605E019
:1013A000FFF7C4F9A0EB0A0159454CD8286A800719
:1013B000F6D41FB1E86920F08050E861E06988B395
:1013C0006968C1F38101022944D00228C6F860800F
:1013D00004D0FFF7ABF9044638E034E0FFF7A6F994
:1013E000074604E0FFF7A2F9C01B02282BD82868A3
:1013F0008001F7D4206AB0F5803F05D16868A16804
:1014000020F4003008436860D4E9080108436968A3
:1014100021F4741108436860C6F86090FFF786F9FC
:10142000044606E025E000BFFFF780F9001B022814
:1014300009D828688001F7D51BE000BFFFF776F9CF
:10144000001B022802D90320BDE8F88F286880011C
:10145000F4D40EE00128F7D06868226A00F48031E5
:10146000914204D1616A00F47010884201D00120D9
:10147000EAE70020E8E700000010024000004242D6
:1014800080044242540000200070004070477047C2
:1014900070B590F83C20012A26D0012480F83C4009
:1014A000022280F83D2003685A689D6822F0700689
:1014B0000A6832435A600D4B02689A4208D0B2F172
:1014C000804F05D00A4B9A4202D00A4B9A4204D16F
:1014D000496825F080031943916080F83D40002160
:1014E00080F83C10084670BD022070BD002C014001
:1014F000000400400008004010B5040003D094F838
:101500003D0010B107E0012010BD002084F83C0030
:10151000204600F01FF8022084F83D00211D2068BD
:1015200001F002FC012084F8460084F83E0084F8B3
:101530003F0084F8400084F8410084F8420084F8B9
:10154000430084F8440084F8450084F83D000020FE
:1015500010BD000000B585B00021009101910291FD
:101560000391184A0168184891421FD1C16941F09E
:101570000201C161C16901F002010491816941F078
:10158000040181618069694600F0040004904020F4
:1015900000900E48FEF7D0FF002205211D20FFF726
:1015A000B7FC1D20FFF7A6FC05B000BD084A91421C
:1015B000FAD1C16941F00401C161C06900F00400C1
:1015C0000490F1E7000400400010024000080140D0
:1015D0000008004090F83D10012901D0012070471B
:1015E000022180F83D100168CA6842F00102CA6019
:1015F00000680B49884208D0B0F1804F05D00949F6
:10160000884202D00849884204D1816801F007016C
:10161000062903D0016841F00101016000207047F4
:10162000002C0140000400400008004070B5044652
:1016300090F83C000025012817D0012684F83C6072
:10164000022084F83D002068826822F0770222F4AC
:101650007F4282600868502838D00DDC20284FD0A7
:1016600005DC90B3102811D14AE0022070BD30286B
:1016700046D040280AD13BE060282FD070280DD0FA
:10168000B0F5805F03D0B0F5005F12D0012584F87B
:101690003D60002084F83C00284670BDCB68D1E94D
:1016A0000121206801F083FB2068816841F0770107
:1016B00009E0CB68D1E90121206801F078FB2068BE
:1016C000816841F480418160E1E719E0CA684968B6
:1016D000206801F021FC5021206806E0CA684968B2
:1016E000206801F057FC6021206801F06AFBCEE71A
:1016F000CA684968206801F00FFC40212068F4E7BF
:10170000226801461046F0E70068104988420BD174
:101710000F48104903780A68012B06D0022B03D129
:10172000516A8160032101707047002353620A6887
:10173000536A4360136A23F00A03136209680A6A52
:1017400042F002020A620221EDE7000000040040BC
:10175000BC000020C80200202DE9F041054690F8A9
:101760003C0000260C46012810D0012085F83C00E2
:1017700072B1042A1CD0082A2CD00C2A50D0012681
:10178000002085F83C003046BDE8F0810220FBE7F0
:10179000D4E90012E368286801F0D0FB2868816969
:1017A00021F00C01816128688169A26811430FE072
:1017B000D4E90012E368286801F0FEFB286881691B
:1017C00021F44061816128688169A26841EA0221AF
:1017D0008161D5E72868D4E9002C277B036A016A78
:1017E00021F480710162C16923F4007321F00301C7
:1017F00041EA0C0121F0F00C39074FF400774CEA74
:10180000116107EA02221A43C16102622868C169B4
:1018100021F00C01C1612868C169A26811432BE065
:101820002868D4E90021E768036AD0F820C02CF4C6
:10183000805CC0F820C0D0F81CC023F400532CF406
:10184000407C4CEA012121F4704C4FF6FF7101EA13
:1018500007314FF4005741EA0C0107EA02321A43FC
:10186000C16102622868C16921F44061C1612868D0
:10187000C169A26841EA0221C16181E710B5040093
:1018800003D094F83D0010B107E0012010BD002006
:1018900084F83C00204600F01EF8022084F83D0049
:1018A000211D206801F040FA012084F8460084F8E8
:1018B0003E0084F83F0084F8400084F8410084F83A
:1018C000420084F8430084F8440084F8450084F81A
:1018D0003D00002010BD704730B50446002551B1D1
:1018E00004290DD0082910D094F8410094F845201F
:1018F000012811D10EE094F83E0094F84220F7E759
:1019000094F83F0094F84320F2E794F8400094F8EC
:101910004420EDE7012A01D0012030BD022059B159
:10192000042912D0082919D084F8410084F8450010
:101930000C2938D0012534E084F83E0084F84200B8
:101940002068C26842F0020210E084F83F0084F888
:1019500043002068C26842F0040207E084F84000B7
:1019600084F844002068C26842F00802C260012284
:10197000206801F00FFA0E492068884208D0B0F1C3
:10198000804F05D00B49884202D00B49884204D1D0
:10199000816801F00701062903D0016841F00101C7
:1019A0000160284630BD2068C26842F01002DDE7C1
:1019B000002C0140000400400008004070B50446BF
:1019C000006801694FF00005C943890715D4C16853
:1019D000C943890711D4E91E0161012020772068DD
:1019E00080698007204602D0FFF78EFE04E000F0F9
:1019F000BFF8204600F051F9257720680169C943F6
:101A0000490717D4C168C943490713D46FF00401CB
:101A10000161022020772068806910F4407F204611
:101A200002D0FFF771FE04E000F0A2F8204600F0BB
:101A300034F9257720680169C943090716D4C168BC
:101A4000C943090712D46FF008010161042020770F
:101A50002068C0698007204602D0FFF755FE04E0E9
:101A600000F086F8204600F018F925772068016913
:101A7000C943C90617D4C168C943C90613D46FF056
:101A800010010161082020772068C06910F4407FB0
:101A9000204602D0FFF738FE04E000F069F8204647
:101AA00000F0FBF8257720680169C943C90708D110
:101AB000C168C943C90704D1891E0161204600F0ED
:101AC0003BF920680169C943090609D4C168C943C3
:101AD000090605D46FF0800101612046FFF7D6FCAE
:101AE00020680169C943490609D4C168C943490648
:101AF00005D46FF040010161204600F027F920680D
:101B00000169C94389060BD4C168C943890607D452
:101B10006FF0200101612046BDE87040FFF7B7BCBF
:101B200070BD000000B585B00021009101910291C7
:101B3000039100680B49884212D10B48816941F03A
:101B4000080181618069694600F0080004904FF443
:101B5000007000900220019003900448FEF7ECFC16
:101B600005B000BD0008004000100240000C01401C
:101B7000704770B5044690F83C0000260D460128D9
:101B80000FD0012084F83C006AB1042A1DD0082A35
:101B90002FD00C2A3FD00126002084F83C0030468C
:101BA00070BD022070BD206801F014F920688169C1
:101BB00041F0080181612068816921F0040181619F
:101BC000206881692A69114311E0206801F02AF92F
:101BD0002068816941F4006181612068816921F494
:101BE00080618161206881692A6941EA02218161FD
:101BF000D2E7206801F042F92068C16941F008018C
:101C0000C1612068C16921F00401C1612068C16916
:101C10002A69114311E0206801F05CF92068C1696C
:101C200041F40061C1612068C16921F48061C16132
:101C30002068C1692A6941EA0221C161ACE710B597
:101C4000040003D094F83D0010B107E0012010BD5E
:101C5000002084F83C00204600F01EF8022084F8A2
:101C60003D00211D206801F05FF8012084F8460046
:101C700084F83E0084F83F0084F8400084F8410076
:101C800084F8420084F8430084F8440084F8450056
:101C900084F83D00002010BD7047704710B5044621
:101CA000022249B104290ED0082913D094F841002A
:101CB000012816D0012010BD94F83E000128F9D16A
:101CC00084F83E200FE094F83F000128F2D184F818
:101CD0003F2008E094F840000128EBD184F8402030
:101CE00001E084F841200122206801F053F80F49F7
:101CF0002068884203D1426C42F40042426420686A
:101D0000884208D0B0F1804F05D00949884202D0FE
:101D10000849884204D1816801F00701062903D0EF
:101D2000016841F001010160002010BD002C01405C
:101D3000000400400008004000680349884201D1C7
:101D4000FFF760B870470000002C0140704770B585
:101D5000040004D094F84100002510B106E00120F1
:101D600070BD84F84050204600F024F8242084F808
:101D700041002068C16821F40051C160204601F093
:101D800037F92068016921F49041016120684169B7
:101D900021F02A0141612068C16841F40051C1600D
:101DA0006564202084F8410084F8420065630020C7
:101DB00070BD000030B585B00024009401940294F9
:101DC000039400681449884224D11448816941F47D
:101DD00080418161816901F480410491816941F010
:101DE0000401816180690E4D00F0040004904FF4FD
:101DF000007000900220019003200390694628465D
:101E0000FEF79AFB2815CDE900046946284602949E
:101E1000FEF792FB05B030BD0038014000100240D3
:101E2000000801402DE9F843044690F841001F46A0
:101E300016460D46202802D00220BDE8F8837DB169
:101E400076B100206064212084F84100FEF76EFC2A
:101E5000A6848046E684A068B0F5805F02D003E0E7
:101E60000120EAE7206910B12E4600250EE0002689
:101E70000CE08021204601F017F9A0B9AEB116F8A8
:101E8000010B21684860E08C401EE084E08C4346F2
:101E90004FF0000200970028EBD14FF040012046A0
:101EA00001F002F930B10320C7E735F8020BC0F3A7
:101EB0000800E6E7202084F841000020BDE7FEE7A7
:101EC00001684A69D24352050FD46FF480624A61B7
:101ED000002140F8301F202242738173026942F0D2
:101EE0000402026101730120704700207047000066
:101EF0002DE9F84F0446C06A1E4693460D462168F8
:101F00000A6842F480620A60082807D0012805D0D8
:101F100010F5803F02D0206B112804D120680168A1
:101F200041F4807101604FF001195B46002249467F
:101F30002046009600F098F94FF4007840B12068F0
:101F40000068C00501D5C4F840800320BDE8F88FC3
:101F50002069DFF884A0B0F5804F0FD006202168FB
:101F600000EAD51747F0F000086133465A460AF1F7
:101F70000601204600F0C0F958BB03E0E8B240F08B
:101F800001001CE02168E8B2086133465A46514618
:101F9000204600F0B1F9E0B92068416981690091FB
:101FA000016841F4807101605B4600224946204689
:101FB000009600F059F90028C1D147F0F1002168DE
:101FC000086133465A465146204600F095F90028EC
:101FD000BCD00120BAE7000002000100F8B50446B9
:101FE000C06A1E460D461746082807D0012805D0AE
:101FF00010F5803F02D0206B122804D120680168C0
:1020000041F480710160134600224FF00111204617
:10201000009600F029F940B120680068C00502D59B
:102020004FF4007020640320F8BD2069B0F5804FA4
:102030000ED00620216800EAD51040F0F0000861BB
:1020400033463A460B49204600F056F978B902E08B
:1020500005F0FE0000E0E8B221680861054933465A
:102060003A46891F204600F047F90028DCD00120BD
:10207000F8BD00000800010010210148FEF74CBB2C
:102080000008014010B5012000F0BAF8012000F06E
:10209000AFF8FFF7F1FF0446002000F0A9F8204652
:1020A00010BD70B50025012000F0AAF8002480269C
:1020B000012000F09DF8FFF7DFFF10B126FA04F0D1
:1020C0000543002000F094F8641CE4B2082CEFD320
:1020D000284670BD2DE9F843044600680D46DDE949
:1020E000089701689846164641F4807101604B4696
:1020F00000224FF001112046009700F0B5F848B1DA
:1021000020680068C00502D54FF4007020640320E9
:10211000BDE8F883216805F0FE0008613B464A46A9
:102120001549204600F0E8F888B9206841698069BF
:1021300000903A464946204600F074F948B1206CB8
:10214000042804D12068016841F400710160012075
:10215000DEE7F5B2B8F1010F09D02168300A086155
:102160003A464946204600F05DF90028E7D120684C
:1021700005610020CCE700000200010010B500F06E
:102180003FF8012000F034F8BDE81040002000F0D6
:102190002FB870B500240546802626FA04F02840A2
:1021A00000F02EF8012000F023F8002000F020F8C5
:1021B000641CE4B2082CF0D370BD10B5012000F00F
:1021C0001FF8012000F014F8002000F019F8BDE815
:1021D0001040002000F00CB810B5002000F010F8FE
:1021E000012000F005F8BDE81040012000F008B81B
:1021F000024620210148FEF794BA00000008014081
:10220000024610210148FEF78CBA00000008014088
:1022100070B516460D4604461EE02046FFF750FEF8
:1022200008B1012070BD681C16D0FEF77FFA801B34
:10223000A84200D885B920684069C04340070BD543
:10224000002044F8300F20216173A073216941F010
:10225000200121612073E4E720684069C043400702
:10226000DBD4002070BD00002DE9F04798461746EA
:102270000D460446C1F30746DDF820902AE000BF72
:10228000B8F1FF3F26D0FEF751FAA0EB0901414516
:1022900002D8B8F1000F1DD12068012E16D0806938
:1022A00025EA00000004000C12D00020B84211D131
:1022B000002044F8300F20216173A073216941F0A0
:1022C0002001216120730120BDE8F0874069E7E724
:1022D0000120EBE72068012E0AD0806925EA000082
:1022E0000004000C06D00020B842C9D00020EBE763
:1022F0004069F3E70120F7E72DE9F04798461646D5
:102300000D4604464FF000094FF0200AC1F307477D
:1023100023E020684069C043400515D42068016867
:1023200041F40071016021686FF480604861C4F875
:10233000309084F83DA084F83E90216C41F0040177
:10234000216484F83C9021E0701C06D0FEF7EEF981
:10235000A0EB0800B04203D816B1012F1FD021E036
:102360002068012F15D0806925EA00000004000CC8
:1023700018D000BF44F8309F84F80DA084F80E9068
:10238000216941F02001216184F80C900120BDE811
:10239000F087406925EA00000004000CEAD12068BB
:1023A000406901E02068806925EA00000004000C13
:1023B000AFD1ECE72DE9F041002590460E460446EA
:1023C000202728E04069C043C0060CD454F8301BD5
:1023D0006FF01000486144F810596777A577206ABC
:1023E0002062257714E0FEF7A1F9A0EB0800B042C7
:1023F00000D886B920684069C04340060BD544F830
:10240000305F6773A573206940F020002061257359
:102410000120BDE8F08120684169C9434906D1D453
:102420000020F6E770B516460D4604461EE020462D
:10243000FFF746FD08B1012070BD681C16D0FEF7FD
:1024400075F9801BA84200D885B920684069C0434F
:1024500000060BD5002044F8300F20216173A073D3
:10246000216941F0200121612073E4E7206840697F
:10247000C0430006DBD4002070BD2DE9F0470746BD
:10248000DDE9089A1D4690460E463B2000F059F8BB
:1024900004463C2000F055F840EA042038803D20F6
:1024A00000F04FF804463E2000F04BF840EA0420CC
:1024B00030803F2000F045F80446402000F041F80D
:1024C00040EA0420A8F80000432000F03AF804464F
:1024D000442000F036F840EA04202880452000F02F
:1024E00030F80446462000F02CF840EA0420A9F811
:1024F0000000472000F025F80446482000F021F8AD
:1025000040EA0420AAF80000BDE8F08710B50121D8
:102510006B2000F035F800216C2000F031F8092123
:10252000192000F02DF806211A2000F029F81821B2
:102530001B2000F025F81821BDE810401C2000F0F9
:102540001FB810B50446FFF738FED020FFF721FE74
:10255000FFF798FD2046FFF71CFEFFF793FDFFF7FE
:102560002CFED120FFF715FEFFF78CFDFFF799FD3C
:1025700004460120FFF702FEFFF72EFE204610BDA5
:1025800070B50D460446FFF718FED020FFF701FE98
:10259000FFF778FD2046FFF7FCFDFFF773FD2846A7
:1025A000FFF7F7FDFFF76EFDBDE87040FFF714BEC3
:1025B00010B5AAB01C2221496846FDF70FFE002184
:1025C000684601F0A2F81E4C1C491C2220611C31F7
:1025D00007A8FDF703FE002107A801F096F81749A8
:1025E00060611C2238310EA8FDF7F8FD00210EA80D
:1025F00001F08BF81149A0611C22543115A8FDF798
:10260000EDFD002115A801F080F80C49E0611C22C5
:1026100070311CA8FDF7E2FD00211CA801F075F83F
:10262000064920621C228C3123A8FDF7D7FD00212A
:1026300023A801F06AF860622AB010BD304C00088F
:10264000200000202DE9F04385B000263048009698
:10265000019602960396816941F0100181618169BA
:1026600001F010010491816941F0200181618169CB
:1026700001F020010491816941F0040181618169C7
:1026800001F004010491816941F0080181618069D0
:10269000DFF8808000F00800049000228E21404680
:1026A000FEF73FF8012230214046FEF73AF80122BA
:1026B000DFF86490170339464846FEF732F80124E4
:1026C0008E20CDE90004032569464046CDE9024548
:1026D000FDF732FF3020009001AA112082E831007E
:1026E00069464046FDF728FF022000970395CDE993
:1026F000014069464846FDF71FFF6003CDE900062B
:10270000694602944846FDF717FF05B0BDE8F0831F
:102710000010024000080140000C01400D4810B5B7
:102720000B4901600C49416000214FF480428160F7
:10273000C0E9031241618161C1610162FDF7FCFFE3
:10274000002803D0BDE81040FDF7E1BE10BD000039
:102750000054004020020020A08601000D4810B562
:102760000B4901600C49416000214FF480428160B7
:10277000C0E9031241618161C1610162FDF7DCFFC3
:10278000002803D0BDE81040FDF7C1BE10BD000019
:102790000058004074020020A086010010B58AB0E5
:1027A00000242248049405940694079408940994FC
:1027B0000094019402941C49039401604721C0E9EC
:1027C00001144FF6FF71C0E903148461FEF794FE13
:1027D00008B1FDF79CFE4FF48050049004A9134803
:1027E000FEF724FF08B1FDF792FE1048FFF746F808
:1027F00008B1FDF78CFE089408A90C480994FEF76F
:1028000047FE08B1FDF783FE0120CDE900400294A8
:102810000022694605480394FEF79EFF002801D078
:10282000FDF775FE0AB010BD00040040C80200208C
:1028300010B58EB000240794089409940A940B9460
:102840001C2168460C94FDF7E2FC1E481C490160FF
:102850004721C0E901146321C0E903148461FEF734
:102860004BFE08B1FDF753FE4FF48050079007A9C7
:102870001448FEF7DBFE08B1FDF749FE1148FFF7EB
:10288000DEF908B1FDF743FE0B940BA90D480C943B
:10289000FEF7FEFD08B1FDF73AFE6020CDE9000429
:1028A00002940C22694607480494FFF762F908B1C4
:1028B000FDF72DFE0348FFF735F90EB010BD0000FF
:1028C00000080040100300200C4810B50A490160C0
:1028D0004FF4E1314160002181600C22C160C0E908
:1028E00004128161C161FFF732FA002803D0BDE80C
:1028F0001040FDF70CBE10BD003801405803002009
:10290000FEE7FEE770B5002404F1B000C0B200F0AD
:10291000C1F8002000F0BEF8102000F0BBF8002540
:10292000002000F0C9F86D1CEDB2802DF8D3641CB6
:10293000E4B2082CE8D370BD10B5C820FDF7EAFD5D
:10294000BDE8104000F0EEBB10B50446B031C8B28F
:1029500000F0A0F8102040EA141000F09BF804F0FA
:102960000F00BDE8104000F095B800002DE9F041DF
:10297000203A00240D468046D6B27F2803D9002095
:102980008D1C8046EDB2102B29460FD0FFF7DCFFDF
:10299000164906EB460001EB4005285D00F08CF877
:1029A000641CE4B2062CF8D3BDE8F081FFF7CCFF3D
:1029B0000F4F00BF04EB0610385C00F07DF8641C7C
:1029C000E4B2082CF6D36D1CE9B24046FFF7BCFF19
:1029D0005FF0000404EB06103844007A00F06CF855
:1029E000641CE4B2082CF5D3DEE70000684200085E
:1029F000904400082DE9F05F0026DDF828901D4680
:102A000092468B46804634464FEA590723E0281BFE
:102A1000401EC1B20A2000F064FEBAFBF0F00A21A9
:102A2000B0FBF1F201FB120026B9691E8C4201DAFB
:102A300038B101263030C2B207FB0480C0B24B4629
:102A400004E007FB0480C0B24B4620225946FFF742
:102A50008DFF641CE4B2AC42D9D3BDE8F09F2DE9F0
:102A6000F041984617460E46044600250DE04346C1
:102A700031462046FFF77AFF0834E4B2782C02D9B9
:102A80000024B61CF6B26D1CEDB27A5D002AEED1C0
:102A9000BDE8F08101B584B001214FF4807204A833
:102AA0008DE807000B46002278210248FEF7C6F8A1
:102AB00005B000BD2002002001B584B001214FF413
:102AC000807204A88DE807000B4640227821024856
:102AD000FEF7B4F805B000BD200200200EB5FFF7E8
:102AE000B1FDFFF713FD114DAE1EA5F10E046420DC
:102AF00000F0FFFD0D4BCDE900651B1F9A1E911ED6
:102B0000881EFFF7BAFCB4F90A00B4F90E20B4F934
:102B10000C108DE80700B4F90830B4F90620B4F9B8
:102B2000041003A000F018FBE1E700002E000020D5
:102B30002041583A2535642041593A2535642041D1
:102B40005A3A2535642047583A2535642047593A82
:102B500025356420475A3A2535640D0A00000000E7
:102B6000FEE700000A4C4FF4FA65AE100122022184
:102B70002046FDF7D6FD284600F0BBFD00220221CD
:102B80002046FDF7CEFD304600F0B3FDEEE7000035
:102B900000080140FEE70000FFF754FD0C21044847
:102BA000FFF77CF800F042FD00F0A8FCFAE7000017
:102BB0001003002008B54FF47A777D102B4C02E00B
:102BC000384600F096FD01F025F80028F8DB4FF4B8
:102BD000C8762649881C01F03AF8284600F089FD9D
:102BE000208810B96088B042F3D00021102320A2C1
:102BF0000846FFF734FF10231FA204210020FFF72F
:102C00002EFFDFF87C902E464FF480581025174990
:102C1000881C01F01CF86088A0F25F11632901D2C2
:102C2000012203E0B0F5E17F16D900224146484673
:102C3000FDF777FD00950423628800212020FFF72F
:102C4000D9FE00950323228804213020FFF7D2FE0D
:102C5000304600F04EFDDAE72088A0F25F11B1F5B2
:102C6000227FDDD9B842E0D8E4E700002000002050
:102C7000434F323A0000000054564F433A000000E0
:102C8000000C014010B5502080F31188BFF34F8F26
:102C9000BFF36F8F01F022FA18B104494FF0805052
:102CA0000860002080F3118810BD000004ED00E0F2
:102CB00030B58FB028216846FDF7A9FA14210AA87B
:102CC000FDF7A5FA01210804CDE9001000240294C3
:102CD00002250491CDE907504FF4E01009906846B1
:102CE000FEF744FA08B172B6FEE70F20CDE90A05F7
:102CF0004FF48060CDE90C4002210AA80E94FEF743
:102D000039F9002801D072B6FEE70FB030BD704728
:102D10000148FEF753BE0000A00300200148FEF763
:102D20004DBE0000C8020020F0B50268164B174CDB
:102D3000174D4FF08047984205D0B84203D0A042CB
:102D400001D0A84203D122F070064A68324398426B
:102D500005D0B84203D0A04201D0A84203D122F44A
:102D60004074CA6822434C6922F080022243026008
:102D70008A68C2620A688262984201D10969016365
:102D800001214161F0BD0000002C01400004004021
:102D90000008004010B501F01F030121046A9940AA
:102DA0008C430462016A9A401143016210BD10B560
:102DB000846842EA032224F47F440A432243826067
:102DC00010BD826822F070020A4342F00701816060
:102DD0007047000030B5036A026A22F00102026205
:102DE0004268846924F073050C682C4323F00205C3
:102DF0008B682B430A4DA8420BD123F00805CB6802
:102E000022F440722B434D6923F0040315438A6971
:102E10002A434260846149684163036230BD000017
:102E2000002C014030B5026A036A23F010030362EC
:102E3000436884690D6824F4E64444EA05248D68F7
:102E400022F0200242EA05120B4DA8420ED1CD68B5
:102E500022F0800242EA05124D6923F4406343EAFE
:102E600085038D6922F0400243EA85034360846153
:102E700049688163026230BD002C014030B5036AAD
:102E8000026A22F4807202624268C46923F4007309
:102E900024F073050C682C438D6843EA05230C4D20
:102EA000A8420ED1CD6823F4006343EA05234D699F
:102EB00022F4405242EA05128D6923F4806342EA0B
:102EC00005124260C4614968C163036230BD0000FD
:102ED000002C014030B5046A026A22F4805202627A
:102EE0004268C3690D6823F4E64343EA05238D680D
:102EF00024F4005444EA0534064DA84204D14D6937
:102F000022F4804242EA85124260C361496801644A
:102F1000046230BD002C014010B5036A046A24F03D
:102F200001040462846924F0F00444EA021423F0EA
:102F30000A020A438461026210BD000070B5056A8E
:102F4000046A24F00104046284690F4EB04208D080
:102F5000B0F1804F05D00D4EB04202D00C4EB042C1
:102F600003D124F00304144301E044F001041A07E0
:102F700024F0F00444EA126225F00A0301F00A0189
:102F800019438261016270BD002C014000040040C1
:102F90000008004010B5036A046A24F010040462BB
:102FA000846923F0A00324F4704444EA023243EA23
:102FB00001118261016210BD30B5046A056A25F015
:102FC00010050562856925F4407545EA022222F460
:102FD00070454FF6FF7202EA033224F0A0032A4341
:102FE000A02404EA011119438261016230BD00008E
:102FF00070B5044600680169E26821F4405111434C
:1030000001612169A0680843616908432168CA68B1
:1030100041F20C639A430243CA6020684169A26985
:1030200021F44071114341611E492068884202D158
:10303000FEF766F801E0FEF753F800EBC00101EB84
:103040000012606864218000B2FBF0F3B3FBF1F37F
:103050006FF018067343B2FBF0F5B2FBF0F605EB28
:103060008305322303EB0515B5FBF1F5B6FBF1F64D
:1030700005F0F00505EB0615B2FBF0F6B2FBF0F03B
:10308000B0FBF1F06FF01802504306EB800003EB49
:103090000010B0FBF1F0216800F00F0028448860B8
:1030A00070BD0000003801402DE9F04198461746F8
:1030B0000E460446069D27E0681C25D02DB1FDF77D
:1030C00035FBA0EB0800A8421ED920680C3050E860
:1030D000001F21F4D07140E80012002AF5D12068C9
:1030E000143050E8001F21F0010140E80012002ACE
:1030F000F5D1202084F8410084F84200002084F8B3
:1031000040000320BDE8F0812068006836EA000036
:1031100004D00020B842CFD00020F3E70120F9E727
:10312000FEE70000FEB50024094F4FF4807501262C
:103130003819CDE9000601230022782102950548BF
:10314000FDF77CFD641CE4B21B2CF1D3FEBD000036
:1031500000000020200200200FB4054B10B503A989
:10316000044A029800F028F810BC5DF814FB000037
:1031700015360008B80000200907090E002804DBF6
:1031800000F1E02080F80014704700F00F0000F11B
:10319000E02080F8141D704702E008C8121F08C123
:1031A000002AFAD170477047002001E001C1121FC8
:1031B000002AFBD1704700002DE9FF4F8BB08846F5
:1031C0000546002606E025280BD0DDE90D129047C4
:1031D0006D1C761C28780028F5D10FB03046BDE86C
:1031E000F08F0024A146A2460122AE4900E004432C
:1031F00015F8013F203B02FA03F00842F7D1287886
:103200002A2810D06FF02F022878A0F13001092968
:1032100015D809EB890102EB410144F0020400EBEF
:1032200001096D1CF0E758F8041B5FEA010903D59A
:1032300044F40054C9F1000944F002046D1C2878DC
:103240002E2817D115F8010F44F004042A280ED0B7
:103250006FF02F022878A0F1300109290AD80AEB73
:103260008A0102EB410100EB010A6D1CF2E758F8FC
:1032700004AB6D1C28786C280FD006DC4C2817D0C6
:1032800068280DD06A2814D104E0742810D07A2858
:103290000FD10DE044F400140AE044F4801401E07E
:1032A00044F440146978814202D104F580146D1C05
:1032B0006D1C2878692865D006DC00288DD063282D
:1032C00027D0642806D15DE06E2808D073282AD064
:1032D000752877D0DDE90D129047761CE0E0C4F345
:1032E0000250022809D003280DD0D8F80010042875
:1032F0000DD00E6008F10408D2E0D8F80010F217E3
:10330000C1E90062F6E7D8F800100E80F2E70E700F
:10331000F0E718F8041B8DF8001000208DF801006C
:10332000EB46012003E058F804BB4FF0FF30610783
:103330004FF0000701D40AE07F1C57450DDA8742A1
:10334000FADB1BF807100029F6D106E07F1C874244
:10335000FCDB1BF807100029F8D1DDE90D23A9EBF0
:1033600007008146214600F0B1F83044C61904E058
:10337000DDE90D121BF8010B90477F1EF8D22146A4
:10338000484688E058F8040BC4F302514FF00A0B8A
:10339000032900D100B2042900D140B2002802DA8A
:1033A00040422D2102E0210505D52B218DF8241066
:1033B000012104E006E0E10710D02021F6E708AF84
:1033C000089113E058F8040BC4F302514FF00A0BB4
:1033D000032900D180B2042900D1C0B20021EEE758
:1033E0005946FCF7C6FF303107F8011D0028F7D118
:1033F000ADEB070000F1200B600702D524F4803408
:1034000001E04FF0010ADA4502DDAAEB0B0000E013
:103410000020824600EB0B0108980144A9EB010053
:103420000A90E00306D4DDE90D2321460A9800F056
:103430004DF806444FF0000908E009A911F8090009
:10344000DDE90D12904709F10109761C08998945BB
:10345000F3DBE0030CD5DDE90D2321460A9800F0EB
:1034600035F8064404E0DDE90D1230209047761C63
:10347000BAF10001AAF1010AF5DC05E0DDE90D125F
:1034800017F8010B9047761CBBF10001ABF1010B63
:10349000F4DC0A982146DDE90D2300F005F8064426
:1034A0006D1C97E6092801002DE9F041044600252E
:1034B0001E461746880404D405E039462020B0474C
:1034C0006D1C641EF9D52846BDE8F0812DE9F04158
:1034D000044600251E469046C80301D5302700E06B
:1034E0002027880404D505E041463846B0476D1CC6
:1034F000641EF9D52846BDE8F08100002DE9F041B1
:103500003D4C3E4F3E4D2078012610B103281CD083
:1035100045E0012280213846FDF703F9012000F043
:10352000E8F8002280213846FDF7FBF835490868A5
:10353000026A22F00A0202620868016A016200213E
:103540003048FEF7C9F9267029E0D4E90110401A85
:10355000FCF7DAFEFCF7FAFE2B4A2C4BFCF762FE76
:10356000FCF7DBFEC0B2002120732170142801D9C2
:10357000AE7014E0A0F11001042901D202200DE088
:10358000A0F10B01042901D2032007E0811F0429C7
:1035900001D2042002E0052801D20520A870687835
:1035A000022817D1A8781A4C062813D2DFE800F0B9
:1035B00012030A141B1D002204213846FDF7B1F83E
:1035C000642005E0002204213846FDF7AAF85020C7
:1035D00021680864BDE8F081002204213846FDF727
:1035E000A0F83C20F4E72820F2E701220421384625
:1035F000FDF797F81420EBE7BC000020000801401D
:103600001B000020C80200209CC420B07268913FBB
:103610001003002013B54FF6FF73012269460248DC
:10362000FEF700FC00981CBD580300202DE9F04176
:10363000194F4FF4005631463846FDF76DF8174CD8
:10364000002570B9642000F054F831463846FDF783
:1036500063F830B92078401CC0B22070032800D134
:10366000257021780E4831B1012909D0022905D1F0
:10367000A17851B10CE0006805646570BDE8F08187
:1036800000680A210164012003E0006864210164EC
:1036900002206070F2E70000000C01401B000020D7
:1036A00010030020FDF7B6FBFFF702FBFEF7CAFF91
:1036B000FFF70AF9FFF732F8FFF750F8FFF76EF857
:1036C000FFF7B6F8FFF738F9FFF71CF9FEF770FFC0
:1036D00000F016F8FEE701460020842900D0C81C3F
:1036E00070470246012000E05043491EC9B2FBD298
:1036F000704710B500B9012000F0B2FB002010BDEA
:1037000010B500F0D3FB002010BD7FB50D46044678
:103710004169B0F9080081B1A16971B1FFF7DBFF20
:10372000D4E905128DE80700D4E900102B46226980
:1037300000F0A9FC039004B070BDFFF7CCFF03A913
:10374000CDE90001208A2B4682B2D4E9001000F0B6
:103750006DFC012801D00020EDE70398EBE70000A5
:103760002DE9F041184C0F46054666692068001D9A
:1037700000F0B2FA38B9206890F82C100120884087
:10378000A1698143A161681C07D137B12168BDE8F7
:10379000F0410E48091D00F0E3BA20683544B542F7
:1037A0004560216805D2A068BDE8F041091D00F020
:1037B000BFBA6068091D00F0BBFA206B854200D2D9
:1037C0002563BDE8F081000058000020C4040020FB
:1037D0002DE9F041054600F0CFFA2E4C2069401C3F
:1037E000206120682C4F10B1E06940B32DE02560C6
:1037F0002069012829D1002606EB860007EB80000E
:1038000000F088FA761C072EF6D323488C3000F09F
:1038100081FA2148A03000F07DFA1F48B43000F052
:1038200079FA1D48C83000F075FA1B48DC3000F00A
:1038300071FA19488C3060601430A06005E020688F
:10384000E96AC06A884200D82560E06A401CE062EC
:10385000E96A0120A26988401043A06101EB810060
:1038600007EB8000291D00F07BFA00F0A5FAE06963
:1038700000280CD02068E96AC06A884207D207494C
:103880004FF080500860BFF34F8FBFF36F8FBDE8DC
:10389000F081000058000020E803002004ED00E063
:1038A00010B5044690F8510058B101280CD00228F8
:1038B0000FD0502080F31188BFF34F8FBFF36F8F6D
:1038C000FEE7206B00F08CFA2046BDE8104000F0C7
:1038D00087BA10BD10484FF44061420706D0C01DA2
:1038E0000D4920F00700411AC1F540610B4A002341
:1038F0000144C2E900030839103A21F007011160C0
:103900004B600B600B1AC0E9001393604FF000404E
:103910005360D06070470000D8040020A40000204D
:10392000144E154CA6F1C8074FF08058DFF84C90A4
:1039300012E000BF00F020FAF068C568281D00F012
:10394000CBF92069401E2061E068401EE06000F075
:1039500033FA2846FFF7A4FFE0680028EAD1386868
:103960000128F9D9C9F80080BFF34F8FBFF36F8FDB
:10397000F2E70000B00400205800002004ED00E051
:103980002DE9F0479A46DDE9098481466FF003038B
:10399000206B03EB82021044089D20F0070670079D
:1039A00007D0502080F31188BFF34F8FBFF36F8F84
:1039B000FEE723180A5C83F834200A5C12B1401C2D
:1039C0001028F6D3002784F84370072D00D306256E
:1039D000E562C4E91157201D00F0A7F904F11800B1
:1039E00000F0A3F92461C5F107006462A061E764F7
:1039F00084F8507052464946304600F0BFF82060C7
:103A0000B8F1000F01D0C8F80040BDE8F087000011
:103A100030B5114900E011460A688242FBD34B6879
:103A20005C18844203D140681844486008464368E3
:103A30001C18944209D1084C103C2468A24209D0B9
:103A400052681A4442600A6812680260814200D0DB
:103A5000086030BD0460F9E7A40000200648416812
:103A6000096829B14168C968C96849680163704734
:103A70004FF0FF31FAE70000580000200848406886
:103A8000401C4FF0500080F3118804D0BFF34F8FDB
:103A9000BFF36F8FFEE7BFF34F8FBFF36F8FFEE76C
:103AA000AC0000202DE9F0410546002700F034FA73
:103AB000314E306808B9FFF70DFFF06805424BD171
:103AC000C5B3083568070ED005F00700C0F108003F
:103AD0000544680707D0502080F31188BFF34F8F4B
:103AE000BFF36F8FFEE72DB37068854234D822484C
:103AF000103001460C6801E020460C466168A9427E
:103B000002D221680029F7D131688C4224D007689D
:103B10002168016060680837411B10290FD96019BE
:103B2000420708D0502080F31188BFF34F8FBFF3B6
:103B30006F8FFEE710E041606560FFF769FF616825
:103B40007068401A7060B268904200D2B060F0684D
:103B500001430020C4E9000100F024FB780707D0EE
:103B6000502080F31188BFF34F8FBFF36F8FFEE7B4
:103B70003846BDE8F08100009400002010B5031F16
:103B80004FF080741C601B1F21F001011960191F88
:103B9000024B0B60143940380A6010BD7D3A0008B2
:103BA00070B50446FF20002231250FE0A35C521CB3
:103BB0005840D2B20023060602D585EA400000E054
:103BC00040005B1CDBB2C0B2082BF4D38A42EDD3B9
:103BD00070BD000008B56423009393B20A46014605
:103BE0000348FCF76DFE002801D04FF0FF3008BD00
:103BF0007402002008B56423009393B20A4601467C
:103C00000348FCF785FF002801D04FF0FF3008BDC6
:103C10007402002008B500F055F8002802DA6FF0B1
:103C2000010008BD3220FFF764FD20208DF8000060
:103C300003208DF8010002226946B020FFF7DAFF69
:103C4000002802DA6FF0020008BD002008BD7CB534
:103C5000054600200090019020208DF800000820EB
:103C60000C468DF8010002226946B020FFF7C2FF22
:103C7000002802DA4FF0FF307CBD0A20FFF739FD43
:103C800006226946B120FFF7A5FF002802DA6FF08F
:103C900001007CBD02210DF10300FFF781FF9DF8BB
:103CA0000510884202D06FF002007CBD1DB1BDF846
:103CB000000040BA28801CB1BDF8030040BA208043
:103CC00000207CBD08B506208DF800000122694661
:103CD0000020FFF78FFF08BDD0E9013201699A602B
:103CE000D0E901235A604A68824201D182684A6061
:103CF000002202610868401E0860086870470000E2
:103D0000034B036003F154000860402010607047CB
:103D1000CC00002000F108014FF0FF32C0E9011291
:103D2000C16001610021016070470021016170479D
:103D300030B50B685A1C02D000F1080202E002699B
:103D400004E02246546825689D42FAD953684B60C6
:103D500099608A60516008610168491C016030BD4A
:103D600042684A6093688B6093685960916008610B
:103D70000168491C01607047502080F31188BFF32F
:103D80004F8FBFF36F8F0A494868401C4860012875
:103D90000CD10848006810F0FF0F07D0502080F3C6
:103DA0001188BFF34F8FBFF36F8FFEE7704700009E
:103DB000AC00002004ED00E00849486828B1401E2E
:103DC000486001D180F311887047502080F311883A
:103DD000BFF34F8FBFF36F8FFEE70000AC000020F2
:103DE00070B5002827D0144DA0F108046168E86878
:103DF000014207D1502080F31188BFF34F8FBFF3EA
:103E00006F8FFEE722683AB1502080F31188BFF32C
:103E10004F8FBFF36F8FFEE78143616000F07CF846
:103E200060686968084468602046FFF7F1FDBDE8F6
:103E3000704000F0B7B970BD940000204FF0E02052
:103E400000210161816105494FF47A720968B1FB73
:103E5000F2F1491E416107210161704754000020C1
:103E600010B5020014D00F48806B38B1502080F399
:103E70001188BFF34F8FBFF36F8FFEE700F04CF850
:103E800000211046FFF76CFC00F08CF9002807D1E8
:103E900005494FF080500860BFF34F8FBFF36F8F1D
:103EA00010BD00005800002004ED00E010B586B001
:103EB0000024039405AA04A903A80494FFF720FF93
:103EC000DDE903010094CDE9011000230EA11048A3
:103ED000059A00F0D8F80F490028486311D0502007
:103EE00080F31188BFF34F8FBFF36F8F4FF0FF3018
:103EF00008630120C8614C6106B0BDE8104000F0C5
:103F000041B806B010BD000049444C450000000017
:103F100021390008580000200248816B491C816348
:103F200070470000580000201448816B11B1012136
:103F300041627047002141628169B1FA81F1C1F1AA
:103F40001F0101EB81020E4951F822306BB101EBE8
:103F5000820101F108034A6852684A609A4201D11D
:103F600052684A60D16801607047502080F3118820
:103F7000BFF34F8FBFF36F8FFEE7000058000020A4
:103F8000E80300201CB5264908780190FF2008703E
:103F900008788DF800009DF800009DF8002000F0E2
:103FA000F000904207D0502080F31188BFF34F8F6C
:103FB000BFF36F8FFEE79DF800001A4B00F0500032
:103FC00018700720986005E09DF8002052008DF8D9
:103FD0000020401E9DF800201206F5D498600328AA
:103FE00007D0502080F31188BFF34F8FBFF36F8F3E
:103FF000FEE74FF440709860019808700A48016825
:1040000041F470010160016841F070410160FFF707
:1040100015FF00205860FCF785F800201CBD00004B
:1040200000E400E0AC00002020ED00E02DE9FF5F9F
:104030008346DDE90E87994616468A469000FFF7CB
:1040400031FD05001CD05420FFF72CFD040014D0D6
:104050000020256384F85100CDE90240CDE90087B6
:104060004B46324651465846FFF78AFC2046FFF73A
:10407000AFFB012004B0BDE8F09F2846FFF7B0FE7B
:104080004FF0FF30F6E7F0B585B0DDE90B640A9D2F
:10409000A6B1DCB1542700972663022684F851604C
:1040A000002604AFCDE90246CDE90057FFF768FCD2
:1040B0002046FFF78DFB049805B0F0BD502080F33B
:1040C0001188BFF34F8FBFF36F8FFEE7502080F34F
:1040D0001188BFF34F8FBFF36F8FFEE72DE9F041DB
:1040E0002E4C0027A06B40B1206A401C2062606A01
:1040F00000B101273846BDE8F0816669761C66612B
:1041000013D16068006838B1502080F31188BFF384
:104110004F8FBFF36F8FFEE76068A1686160A0609A
:10412000A06A401CA062FFF799FC206BDFF870804A
:10413000864209D36068006880B16068C068C5685D
:10414000686886420DD220632068C06A00EB800157
:1041500058F821000128CAD90127C8E74FF0FF30DD
:10416000F1E7281DFFF7B8FDA86A18B105F118009E
:10417000FFF7B2FDE86A0121A26981401143A16104
:1041800000EB800108EB8100291DFFF7E9FDE86ADB
:104190002168C96A8842CDD30127CBE758000020A7
:1041A000E80300202DE9F0472C4D00242746A86B9A
:1041B00038B1FFF7E1FDA86B401EA863A86B40B1C2
:1041C00046E0502080F31188BFF34F8FBFF36F8F0D
:1041D000FEE72969224E0120D1B3A6F1B409804639
:1041E0003068E8B1F068C46804F11800FFF774FDA6
:1041F000201DFFF771FDE06AAA6908FA00F111437A
:10420000A96100EB800109EB8100211DFFF7A8FDEA
:10421000E06A2968C96A8842E2D3C5F82480DFE7EA
:104220000CB1FFF71BFC2C6A44B14646FFF756FF62
:1042300000B16E62641EF9D100202862686A38B14C
:104240000849012738070860BFF34F8FBFF36F8F0E
:10425000FFF7B2FD3846BDE8F087000058000020A7
:104260009C04002004ED00E00000000000000000BD
:10427000002F000000000700070000147F147F14C7
:1042800000242A7F2A12006264081323003649554D
:10429000225000000503000000001C224100000025
:1042A00041221C000014083E08140008083E0808BB
:1042B000000000A060000008080808080000606016
:1042C0000000002010080402003E5149453E000055
:1042D000427F4000004261514946002141454B3137
:1042E000001814127F10002745454539003C4A4903
:1042F0004930000171090503003649494936000675
:104300004949291E000036360000000056360000DC
:104310000008142241000014141414140000412257
:10432000140800020151090600324959513E007C2F
:104330001211127C007F49494936003E4141412219
:10434000007F4141221C007F49494941007F090902
:104350000901003E4149497A007F0808087F0000B2
:10436000417F4100002040413F01007F081422416D
:10437000007F40404040007F020C027F007F040825
:10438000107F003E4141413E007F09090906003E81
:104390004151215E007F09192946004649494931AA
:1043A0000001017F0101003F4040403F001F2040CD
:1043B000201F003F4038403F00631408146300078B
:1043C0000870080700615149454300007F414100E2
:1043D00000552A552A55000041417F000004020182
:1043E0000204004040404040000001020400002060
:1043F00054545478007F484444380038444444209E
:1044000000384444487F00385454541800087E094A
:1044100001020018A4A4A47C007F08040478000012
:10442000447D4000004080847D00007F10284400CF
:104430000000417F4000007C04180478007C0804E0
:10444000047800384444443800FC2424241800181C
:10445000242418FC007C0804040800485454542008
:1044600000043F444020003C4040207C001C204091
:10447000201C003C4030403C004428102844001CD4
:10448000A0A0A07C004464544C44141414141414CC
:10449000000000000000000000000000000000001C
:1044A000000000F8000000000000003330000000B1
:1044B00000100C06100C06000000000000000000B8
:1044C00040C07840C0784000043F04043F0404002A
:1044D000007088FC08300000001820FF211E00003A
:1044E000F008F000E018000000211C031E211E004F
:1044F00000F00888700000001E21232419272110D5
:1045000010160E0000000000000000000000000077
:10451000000000E01804020000000007182040001E
:1045200000020418E000000000402018070000000E
:10453000404080F0804040000202010F0102020072
:10454000000000F0000000000101011F0101010056
:10455000000000000000000080B0700000000000BB
:104560000000000000000000000101010101010144
:1045700000000000000000000030300000000000DB
:1045800000000000806018040060180601000000B0
:1045900000E010080810E000000F102020100F00AD
:1045A000001010F8000000000020203F2020000034
:1045B000007008080888700000302824222130008C
:1045C00000300888884830000018202020110E0094
:1045D0000000C02010F8000000070424243F24003D
:1045E00000F80888880808000019212020110E0012
:1045F00000E0108888180000000F112020110E0024
:1046000000380808C83808000000003F000000001B
:104610000070880808887000001C222121221C00DC
:1046200000E010080810E0000000312222110F0005
:10463000000000C0C000000000000030300000009A
:10464000000000800000000000008060000000000A
:104650000000804020100800000102040810200023
:10466000404040404040400004040404040404006E
:104670000008102040800000002010080402010003
:10468000007048080808F000000000303601000003
:10469000C030C828E810E0000718272423140B00B6
:1046A0000000C038E0000000203C23020227382030
:1046B00008F8888888700000203F202020110E0014
:1046C000C03008080808380007182020201008000B
:1046D00008F808080810E000203F202020100F00F4
:1046E00008F88888E8081000203F202023201800C0
:1046F00008F88888E8081000203F20000300000028
:10470000C03008080838000007182020221E0200C8
:1047100008F808000008F808203F210101213F2087
:10472000000808F8080800000020203F20200000B2
:1047300000000808F8080800C08080807F000000A2
:1047400008F888C028180800203F200126382000DB
:1047500008F8080000000000203F20202020300042
:1047600008F8F800F8F80800203F003F003F20005C
:1047700008F830C00008F808203F200007183F0064
:10478000E01008080810E0000F10202020100F0093
:1047900008F808080808F000203F21010101000086
:1047A000E01008080810E0000F18242438504F00CB
:1047B00008F8888888887000203F2000030C30208B
:1047C00000708808080838000038202121221C00C9
:1047D000180808F8080818000000203F2000000012
:1047E00008F808000008F808001F202020201F00FB
:1047F0000878880000C83808000007380E0100005B
:10480000F80800F80008F800033C0700073C030024
:10481000081868808068180820302C03032C30208A
:104820000838C800C83808000000203F20000000F9
:1048300010080808C8380800203826212020180051
:10484000000000FE020202000000007F4040400025
:10485000000C30C000000000000000010638C0005D
:1048600000020202FE000000004040407F00000005
:10487000000004020202040000000000000000002A
:104880000000000000000000808080808080808028
:104890000002020400000000000000000000000010
:1048A00000008080808000000019242222223F2006
:1048B00008F8008080000000003F112020110E0049
:1048C0000000008080800000000E112020201100D8
:1048D000000000808088F800000E112020103F208A
:1048E0000000808080800000001F2222222213000E
:1048F000008080F0888888180020203F2020000059
:104900000000808080808000006B9494949360000D
:1049100008F8008080800000203F210000203F2018
:1049200000809898000000000020203F2020000018
:10493000000000809898000000C08080807F000008
:1049400008F8000080808000203F24022D302000E5
:10495000000808F8000000000020203F2020000090
:104960008080808080808000203F20003F20003FAA
:104970008080008080800000203F210000203F20B8
:104980000000808080800000001F202020201F0069
:10499000808000808000000080FFA12020110E0098
:1049A0000000008080808000000E112020A0FF8089
:1049B000808080008080800020203F212000010036
:1049C000000080808080800000332424242419008B
:1049D000008080E0808000000000001F2020000098
:1049E0008080000000808000001F202020103F20D9
:1049F000808080000080808000010E300806010069
:104A000080800080008080800F300C030C300F000D
:104A100000808000808080000020312E0E31200038
:104A2000808080000080808080818E701806010068
:104A300000808080808080000021302C2221300086
:104A400000000000807C020200000000003F4040A7
:104A50000002027C800000000040403F0000000097
:104A600000000000FF00000000000000FF00000048
:104A70000000041464040CB402024233020000007B
:104A80000000000000000000000000000000000026
:104A900040412111090503FF03050911214140008F
:104AA0000000000000000000000000000000000006
:104AB0001010D0FF900010919690F09094931000F9
:104AC00000000000000000000000000000000000E6
:104AD000040300FF000104040404FF0404040400B0
:104AE00000000000000000000000000000000000C6
:104AF000008060F80704E4A4A4BFA4A4E4040000B8
:104B000000000000000000000000000000000000A5
:104B1000010000FF40407F4A4A4A4A4A7F40400025
:104B20000000000000000000000000000000000085
:104B30000000F888888888FF88888888F800000046
:104B40000000000000000000000000000000000065
:104B500000001F080808087F888888889F80F00068
:104B60000000000000000000000000000000000045
:104B70000000FE0282828282FA82828282820200A7
:104B80000000000000000000000000000000000025
:104B900080601F40404040407F40404458404000BB
:104BA0000000000000000000000000000000000005
:104BB000008060F80704E4A4A4BFA4A4E4040000F7
:104BC00000000000000000000000000000000000E5
:104BD000010000FF40407F4A4A4A4A4A7F40400065
:104BE00000000000000000000000000000000000C5
:104BF00000000000000000000000000000000000B5
:104C000000000000000000000000000000000000A4
:104C10000000363600000000000000000000000028
:104C20000000000000000000000000000000000084
:104C3000044D0008DD2A000800000000000000000C
:104C4000800000000000000000000000104D00087F
:104C5000612B0008FDFF00000000000020000000A4
:104C600000000000000000001C4D0008652B00083B
:104C7000FDFF000000000000200000000000000018
:104C800000000000284D0008952B0008FDFF0000E3
:104C900000000000400000000000000000000000D4
:104CA000344D0008992B0008FDFF000000000000B3
:104CB000800000000000000000000000404D0008DF
:104CC000B52B0008FDFF0000000000008000000080
:104CD00000000000000000000102020304050607B6
:104CE00008090A0B0C0D0E0F101000000000000048
:104CF0000000010203040607080900000000010289
:104D0000030400006D795461736B303100000000C2
:104D10006D795461736B3032000000006D7954611D
:104D2000736B3033000000006D795461736B303465
:104D3000000000006D795461736B30350000000095
:104D40006D795461736B3036000000006C4D0008C3
:104D500000000020BC00000098310008284E000828
:104D6000BC0000201C140000A8310008AE00104058
:104D7000B081FFA1A6A83FC8D300D580D805D9F13E
:104D8000DA12D8308D14AF000000000000000000DF
:104D90000000000000000000000000000000000013
:104DA0000000000000000000000000000000000003
:104DB00000000000010000001000000000000000E2
:104DC0000024F400000000000000000000000000CB
:104DD00000000000000000000000000000000000D3
:104DE00000000000000000000000000000000000C3
:104DF00000000000000000000000000000000000B3
:104E000000000000000000000000000000000000A2
:104E1000000000000000000000000000AAAAAAAAEA
:084E200000000000000000008A
:04000005080000ED02
:00000001FF
